:100000000C9434000C9449000C9449000C94490061
:100010000C9449000C9449000C9449000C9449003C
:100020000C9449000C9449000C9449000C9449002C
:100030000C9449000C9449000C9449000C9449001C
:100040000C9449000C9449000C9449000C9449000C
:100050000C9449000C9449000C9449000C944900FC
:100060000C9449000C94490011241FBECFEFD8E036
:10007000DEBFCDBF11E0A0E0B1E0EAE7F2E002C0F0
:1000800005900D92A230B107D9F70E94E8000C94B8
:100090003B010C940000CF93DF9300D0CDB7DEB7C7
:1000A0009A8389830DC014BC16BC83E085BD86B5D8
:1000B0008A3FE8F315BC89819A8101979A838983E5
:1000C00089819A811816190674F30F900F90DF91A9
:1000D000CF91089596B181E08927817090E00895CD
:1000E0000E946A00892BE1F3089581E085B90895A3
:1000F00082E085B9089583E085B908958091000173
:10010000909101018230910599F01CF4019739F02A
:10011000089583309105A9F00497E1F0089580E1F6
:100120008BB982E090E090930101809300010895E3
:1001300080E48BB983E090E090930101809300010B
:10014000089580E28BB984E090E090930101809360
:100150000001089580E88BB981E090E0909301015F
:1001600080930001089580910001909101018230F7
:10017000910599F01CF4019739F0089583309105A9
:10018000A9F00497E1F0089580E28BB984E090E053
:100190009093010180930001089580E88BB981E07C
:1001A00090E09093010180930001089580E18BB964
:1001B00082E090E09093010180930001089580E433
:1001C0008BB983E090E09093010180930001089542
:1001D0008FEF84B98AB917B883E085B90E947B0094
:1001E0000E94700000E010E041C0083111054CF49D
:1001F0000E9475000E947E0080ED90E00E944B00FE
:1002000012C00831110539F40E947B0088EE93E09A
:100210000E944B0008C00E9478000E94B30088E64C
:1002200090E00E944B000E946A00892BC1F41CC020
:10023000CE0106970C9748F00E9475000E947E0040
:100240008DE790E00E944B0008C00E9478000E9459
:10025000B3008DE790E00E944B00219602C0C0E001
:10026000D0E0C831D10524F30F5F1F4F09341105C9
:0A0270000CF4BBCFB3CFF894FFCF1E
:02027A00010081
:00000001FF
