:100000000C9434000C943E000C943E000C943E0082
:100010000C943E000C943E000C943E000C943E0068
:100020000C943E000C943E000C943E000C943E0058
:100030000C943E000C943E000C943E000C943E0048
:100040000C943E000C943E000C943E000C943E0038
:100050000C943E000C943E000C943E000C943E0028
:100060000C943E000C943E0011241FBECFEFD8E04C
:10007000DEBFCDBF0E9488000C94C4000C94000029
:10008000EAE7F0E080818064808380917A0084FFD9
:10009000FCCF8091790090E008958530910514F0AF
:1000A00084E090E0992364F021E030E0A90102C0EF
:1000B000440F551F8A95E2F7CA01809585B90895C6
:1000C0008FEF85B908958130910551F08F3F2FEF63
:1000D000920741F08E3F2FEF920729F460ED03C0A5
:1000E00060E801C060E81816190624F428B12260FF
:1000F00028B903C028B12D7F28B9992324F488B1E9
:10010000846088B903C088B18B7F88B967BD0895C2
:100110008FEF84B985B98EEF87B980E68AB917BCAD
:1001200093E894BD93E095BD80937C0010926400A9
:1001300087E880937A000E9440008C019C01A1EA2C
:10014000B0EA0E94B500EC01D695C795D295C2954C
:10015000CF70CD27DF70CD27CE010E944D00B801B2
:10016000CE0102970E946300E6CFA29FB001B39F29
:10017000C001A39F700D811D1124911DB29F700DB0
:0C018000811D1124911D0895F894FFCFFB
:00000001FF
