S01700004763634170706C69636174696F6E312E737265635B
S11300000C9434000C943E000C943E000C943E007E
S11300100C943E000C943E000C943E000C943E0064
S11300200C943E000C943E000C943E000C943E0054
S11300300C943E000C943E000C943E000C943E0044
S11300400C943E000C943E000C943E000C943E0034
S11300500C943E000C943E000C943E000C943E0024
S11300600C943E000C943E0011241FBECFEFD8E048
S1130070DEBFCDBF0E9496000C94DD000C940000FE
S1130080CF93DF9300D0CDB7DEB79A8389830DC0B9
S113009014BC16BC83E085BD86B58A3FE8F315BC65
S11300A089819A8101979A83898389819A81181613
S11300B0190674F30F900F90DF91CF91089595B1C5
S11300C09B7F95B98EBD0DB407FEFDCF6EBD0DB4FB
S11300D007FEFDCF85B1846085B9089584B18C6233
S11300E084B981E58CBD6FEF89E00E945F0062E016
S11300F08BE00E945F0060E08FE00E945F00089543
S1130100CF932AE030E0B9010E94B500482FCB011B
S1130110B9010E94B500C82F642F81E00E945F00DE
S11301206C2F82E00E945F00CF9108950E946E00C0
S113013084E090E00E94800061E08CE00E945F0017
S113014084EF91E00E94400086E090E00E948000ED
S113015084EF91E00E94400060E08CE00E945F0028
S113016080ED97E00E944000E3CF97FB072E16F442
S1130170009407D077FD09D00E94C90007FC05D080
S11301803EF4909581959F4F0895709561957F4FAA
S11301900895AA1BBB1B51E107C0AA1FBB1FA617CA
S11301A0B70710F0A61BB70B881F991F5A95A9F71C
S11101B080959095BC01CD010895F894FFCF81
S9030000FC
