S01700004763634170706C69636174696F6E312E737265635B
S11300000C9434000C94BF020C94D3020C94510051
S11300100C9451000C9451000C9451000C94510018
S11300200C9451000C9451000C9451000C94510008
S11300300C9451000C9451000C9451000C945100F8
S11300400C9451000C9451000C9451000C945100E8
S11300500C9451000C9451000C9451000C945100D8
S11300600C9451000C94510011241FBECFEFD8E022
S1130070DEBFCDBF11E0A0E0B1E0ECE1FFE002C0E3
S113008005900D92AA35B107D9F721E0AAE5B1E0B0
S113009001C01D92A836B207E1F70E94FE010C943C
S11300A08C070C94000080915C0190915D01892B78
S11300B081F584B1826084B98AB181608AB98AB1D8
S11300C082608AB98AB180628AB98AB180648AB945
S11300D08AB180688AB984B1816084B985B18D7F21
S11300E085B98BB18E7F8BB98BB18D7F8BB98BB179
S11300F08F7D8BB98BB18F7B8BB98BB18F778BB99C
S113010085B18E7F85B981E090E090935D01809305
S11301105C01089580915A0190915B01892BB1F49F
S11301208BB181608BB92FEF8DE292E22150804038
S11301309040E1F700C000008BB18E7F8BB981E065
S113014090E090935B0180935A0108958BB1826093
S11301508BB92FEF8DE292E2215080409040E1F77D
S113016000C000008BB18D7F8BB910925B0110929F
S11301705A01089585B1826085B9089585B18D7F4E
S113018085B9089580910001909101018230910513
S1130190E9F01CF4019739F008958330910549F191
S11301A00497D1F108958BB180648BB98BB18F7DA5
S11301B08BB98BB18F778BB985B18E7F85B982E08E
S11301C090E09093010180930001089585B18160CE
S11301D085B98BB18F7D8BB98BB18F7B8BB98BB18B
S11301E08F778BB983E090E09093010180930001B5
S11301F008958BB180628BB98BB18F7B8BB98BB136
S11302008F778BB985B18E7F85B984E090E0909328
S113021001018093000108958BB180688BB98BB183
S11302208F7D8BB98BB18F7B8BB985B18E7F85B96F
S113023081E090E090930101809300010895809102
S113024000019091010182309105E9F01CF40197BD
S113025039F008958330910549F10497D1F1089557
S11302608BB180628BB98BB18F7B8BB98BB18F775C
S11302708BB985B18E7F85B984E090E090930101BC
S11302808093000108958BB180688BB98BB18F7D09
S11302908BB98BB18F7B8BB985B18E7F85B981E0AA
S11302A090E0909301018093000108958BB18064E4
S11302B08BB98BB18F7D8BB98BB18F778BB985B1AE
S11302C08E7F85B982E090E09093010180930001D4
S11302D0089585B1816085B98BB18F7D8BB98BB160
S11302E08F7B8BB98BB18F778BB983E090E0909340
S11302F00101809300010895CF93DF93C0E0D0E023
S113030009C00E941F018FE19BEC0197F1F700C027
S113031000002196C039D105A4F39FEF23ED80E3BB
S1130320915020408040E1F700C00000C0E0D0E0E0
S113033009C00E94C2008FE19BEC0197F1F700C055
S113034000002196C039D105A4F3DF91CF9108951F
S11303500E9453000E94CE030E946D040E94380440
S113036008950F931F93CF93DF93CDB7DEB7AB9769
S11303700FB6F894DEBF0FBECDBF21E1EBE0F1E094
S1130380DE01119601900D922A95E1F729E0ECE146
S1130390F1E0DE01529601900D922A95E1F7452B8A
S11303A019F022E031E002C027E031E03F932F93BF
S11303B07F936F939F938F93CE0142969F938F93D6
S11303C08E01055E1F4F1F930F930E94A2040E948B
S11303D06F03B801CE0101960E9419040FB6F89478
S11303E0DEBF0FBECDBFAB960FB6F894DEBF0FBE17
S11303F0CDBFDF91CF911F910F9108950E94A80165
S11304000F2EF4E1EF2EF12CF02D00E010E00E940D
S113041051045C010E9490046C010E9497042B011A
S11304203C01A114B10419F0C8ECD0E002C0C4E648
S1130430D0E0A501B201C6010E94B10129E1C216B2
S1130440D10434F481E090E09093610180936001E1
S1130450CE01DD0FAA0BBB0B481659066A067B06B4
S113046034F481E090E090935F0180935E01C801D1
S113047001978431910508F48C011E141F041CF4A7
S113048081E0E81AF1088091600190916101892B63
S113049029F10531110511F51092610110926001E5
S11304A00E946F0365E271E08AE291E00E94190400
S11304B09FEF23ED80E3915020408040E1F700C09E
S11304C000000E94BA009FEF23ED80E3915020408A
S11304D08040E1F700C000000150110980915E01E5
S11304E090915F01892B71F010925F0110925E016F
S11304F00E946F0368E371E08AE291E00E941904AC
S11305000E947C0101151105F1F40E946F0365E25C
S113051071E08EE391E00E9419049FEF23ED80E3E4
S1130520915020408040E1F700C000000E94BE00CE
S11305309FEF23ED80E3915020408040E1F700C01D
S1130540000005E110E0E114F10479F40E946F0366
S11305506CE471E08DE491E00E9419040E948A0029
S11305600F2EF4E1EF2EF12CF02D9FEF23ED80E31D
S1130570915020408040E1F700C0000048CF1F9216
S11305800F920FB60F9211248F939F9381E090E006
S113059090935F0180935E019F918F910F900FBEA6
S11305A00F901F9018951F920F920FB60F9211245F
S11305B08F939F9381E090E0909361018093600119
S11305C09F918F910F900FBE0F901F90189595B12A
S11305D09B7F95B988231CF495B1946095B995B126
S11305E0977F95B986FF03C095B1986095B995B189
S11305F09F7E95B985FF03C095B1906195B995B17A
S11306009F7D95B984FF03C085B1806285B988B1A7
S1130610886088B985E08A95F1F7000088B1877F02
S113062088B985E08A95F1F700000895CF93C82F23
S113063088B18F7E88B988B1806288B988B1877F94
S113064088B98C2F0E94E7028C2F8295807F0E94AC
S1130650E702CF910895CF93C82F88B18F7E88B9D0
S113066088B18F7D88B988B1877F88B98C2F0E9423
S1130670E7028C2F8295807F0E94E702CF91089534
S113068084B18B7F84B988B18F7D88B988B180614A
S113069088B988B1886088B985E08A95F1F7000047
S11306A093B188B1877F88B985E08A95F1F7000016
S11306B088B1886088B985E08A95F1F7000088B12F
S11306C0877F88B985E08A95F1F7000092FDE1CF34
S11306D088B18F7E88B984B1846084B908950E94FA
S11306E0400388E00E942B030E94400381E00E94A3
S11306F02B030E94400386E00E942B030E944003C8
S11307008CE00E942B0308952FEF81EE94E021509A
S113071080409040E1F700C0000088B18F7D88B927
S113072088B1877F88B988B18F7E88B980E30E94B9
S1130730E7028FE39CE90197F1F700C0000080E332
S11307400E94E7028FE193E00197F1F700C00000F7
S113075080E30E94E7028FE391E00197F1F700C084
S1130760000088E20E94E7020E94400388E20E949F
S11307702B030E94400388E00E942B030E94400345
S113078081E00E942B030E94400386E00E942B0319
S11307900E9440038CE00E942B0308958091620123
S11307A090916301892BE9F484B1846084B984B1A4
S11307B0886084B984B1806184B984B1806284B969
S11307C087B1886087B987B1806287B987B1806152
S11307D087B90E94840381E090E090936301809341
S11307E0620108950F931F93CF93DF9300D0CDB789
S11307F0DEB78C011A8219820EC00E944003E9817F
S1130800FA81E00FF11F80810E94160389819A8189
S113081001969A838983E981FA81E00FF11F80812F
S11308208111EBCF0F900F90DF91CF911F910F911A
S113083008950F931F93CF93DF938C01EB010E94D4
S1130840400380E80E942B030E944003C8010E94D9
S1130850F2030E94400380EC0E942B030E94400399
S1130860CE010E94F203DF91CF911F910F91089561
S11308708091640190916501892B91F48AB18B7FF9
S11308808AB98AB1877F8AB98FE08093690083E04F
S11308908DBB789481E090E090936501809364012E
S11308A0089589B182958F7091E08927817090E0D5
S11308B00895EAE7F0E080818064808380917A0083
S11308C084FFFCCF8091790090E00895ECE7F0E09C
S11308D080838081806680830895809166019091F1
S11308E06701892BE1F48AB18F7E8AB987B18E7F43
S11308F087B987B18D7F87B981E090E00E94660453
S113090010926400EAE7F0E087E0808380818068E9
S1130910808381E090E0909367018093660108955D
S113092080E090E00E9466040E945904089581E0EA
S113093090E00E9466040E945904BC01990F880B40
S1130940990B0895AEE0B0E0E8EAF4E00C94630794
S11309500D891E8986E08C831A8309838FEF9FE7B4
S11309609E838D83AE01475E5F4F6F89788DCE0184
S113097001960E94C404EF81F885E00FF11F1082F4
S11309802E96E4E00C947F07ABE0B0E0EAECF4E0F0
S11309900C9455076C017B018A01FC0117821682B5
S11309A0838181FFCCC1CE0101963C01F601938184
S11309B0F70193FD859193FF81917F01882309F4C9
S11309C0BAC1853239F493FD859193FF81917F01FA
S11309D0853229F4B60190E00E94BB06E7CF912C42
S11309E0212C312CFFE1F315D8F08B3279F038F457
S11309F0803279F08332A1F4232D20611DC08D3221
S1130A0061F0803369F4232D216016C0832D826048
S1130A10382EE32DE4603E2E2AC0F32DF8601DC06D
S1130A2037FC2DC020ED280F2A3040F08E32B9F467
S1130A3036FC81C1232D2064322E19C036FE06C037
S1130A408AE0989E200D1124922E11C0EAE02E9E79
S1130A50200D1124222EF32DF0623F2E08C08C3677
S1130A6021F4832D8068382E02C0883641F4F701C2
S1130A7093FD859193FF81917F018111B3CF982FCD
S1130A809F7D9554933028F40C5F1F4F9FE3998307
S1130A900DC0833631F0833771F0833509F059C0C6
S1130AA021C0F801808189830E5F1F4F88248394BD
S1130AB0912C530113C02801F2E04F0E511CF80190
S1130AC0A080B18036FE03C0692D70E002C06FEFD4
S1130AD07FEFC5010E94B0064C018201F32DFF7720
S1130AE03F2E16C0280122E0420E511CF801A080BE
S1130AF0B18036FE03C0692D70E002C06FEF7FEF56
S1130B00C5010E94A5064C01F32DF0683F2E820119
S1130B1033FC1BC0822D90E088169906B0F4B60110
S1130B2080E290E00E94BB062A94F4CFF50137FCE2
S1130B30859137FE81915F01B60190E00E94BB066A
S1130B4021102A9421E0821A91088114910471F7EA
S1130B50E8C0843611F0893641F5F80137FE07C044
S1130B6060817181828193810C5F1F4F08C0608115
S1130B707181072E000C880B990B0E5F1F4FF32D0C
S1130B80FF763F2E97FF09C09095809570956195EB
S1130B907F4F8F4F9F4FF0683F2E2AE030E0A30134
S1130BA00E94F706882E861845C0853731F4232D18
S1130BB02F7EB22E2AE030E025C0932D997FB92EE6
S1130BC08F36C1F018F4883579F0B5C0803719F044
S1130BD0883721F0B0C0E92FE061BE2EB4FE0DC00D
S1130BE0FB2DF460BF2E09C034FE0AC0292F2660F5
S1130BF0B22E06C028E030E005C020E130E002C09B
S1130C0020E132E0F801B7FE07C060817181828182
S1130C1093810C5F1F4F06C06081718180E090E07A
S1130C200E5F1F4FA3010E94F706882E8618FB2D26
S1130C30FF773F2E36FE0DC0232D2E7FA22E891462
S1130C4058F434FE0BC032FC09C0832D8E7EA82ECE
S1130C5005C0B82CA32C03C0B82C01C0B92CA4FE29
S1130C600FC0FE01E80DF11D8081803321F49A2D1F
S1130C70997EA92E09C0A2FE06C0B394B39404C001
S1130C808A2D867809F0B394A3FC11C0A0FE06C097
S1130C90B21488F4280C922C9B180EC0B21460F481
S1130CA0B60180E290E00E94BB06B394F7CFB21481
S1130CB018F42B1802C0982C212CA4FE10C0B601E5
S1130CC080E390E00E94BB06A2FE17C0A1FC03C013
S1130CD088E790E002C088E590E0B6010CC08A2D58
S1130CE0867859F0A1FE02C08BE201C080E2A7FC25
S1130CF08DE2B60190E00E94BB06891438F4B60177
S1130D0080E390E00E94BB069A94F7CF8A94F301A3
S1130D10E80DF11D8081B60190E00E94BB068110B0
S1130D20F5CF222009F442CEB60180E290E00E9481
S1130D30BB062A94F6CFF6018681978102C08FEF15
S1130D409FEF2B96E2E10C947107FC010590615032
S1130D5070400110D8F7809590958E0F9F1F0895CD
S1130D60FC016150704001900110D8F78095909576
S1130D708E0F9F1F08950F931F93CF93DF93FB0153
S1130D80238121FD03C08FEF9FEF2CC022FF16C0EB
S1130D9046815781248135814217530744F4A08149
S1130DA0B1819D012F5F3F4F318320838C93268136
S1130DB037812F5F3F4F3783268314C08B01EC01AB
S1130DC0FB010084F185E02D0995892BE1F6D8011A
S1130DD016968D919C911797019617969C938E93D6
S1130DE01697CE01DF91CF911F910F910895FA01CB
S1130DF0AA27283051F1203181F1E8946F936E7F56
S1130E006E5F7F4F8F4F9F4FAF4FB1E03ED0B4E046
S1130E103CD0670F781F891F9A1FA11D680F791F87
S1130E208A1F911DA11D6A0F711D811D911DA11D98
S1130E3020D009F468943F912AE0269F11243019A8
S1130E40305D3193DEF6CF010895462F4770405D43
S1130E504193B3E00FD0C9F7F6CF462F4F70405DF2
S1130E604A3318F0495D31FD4052419302D0A9F74D
S1130E70EACFB4E0A6959795879577956795BA9547
S1130E80C9F700976105710508959B01AC010A2E0D
S1130E9006945795479537952795BA95C9F7620FE4
S1130EA0731F841F951FA01D08952F923F924F9288
S1130EB05F926F927F928F929F92AF92BF92CF92E6
S1130EC0DF92EF92FF920F931F93CF93DF93CDB7EF
S1130ED0DEB7CA1BDB0B0FB6F894DEBF0FBECDBF67
S1130EE009942A88398848885F846E847D848C8438
S1130EF09B84AA84B984C884DF80EE80FD800C8141
S1130F001B81AA81B981CE0FD11D0FB6F894DEBF23
S10F0F100FBECDBFED010895F894FFCF93
S1130F1C010048494748004C4F57004C69742F4D09
S1130F2C6F6973742F5468726573680025642F2578
S1130F3C642F2573004C414D50005475726E696ECC
S1130F4C67206F6E2E2E2E00574154455200547557
S1130F5C726E696E67206F66662E2E2E00526F7449
S10D0F6C6174696E672E2E2E0000DA
S9030000FC
