:100000000C9434000C943E000C943E000C943E0082
:100010000C943E000C943E000C943E000C943E0068
:100020000C943E000C943E000C943E000C943E0058
:100030000C943E000C943E000C943E000C943E0048
:100040000C943E000C943E000C943E000C943E0038
:100050000C943E000C943E000C943E000C943E0028
:100060000C943E000C943E0011241FBECFEFD8E04C
:10007000DEBFCDBF0E947D000C94AE000C9400004A
:10008000CF93DF9300D0CDB7DEB79A8389830DC0BD
:1000900014BC16BC83E085BD86B58A3FE8F315BC69
:1000A00089819A8101979A83898389819A81181617
:1000B000190674F30F900F90DF91CF910895EAE73E
:1000C000F0E080818064808380917A0084FFFCCF9F
:1000D0008091790090E00895992364F021E030E068
:1000E000A90102C0440F551F8A95E2F7CA01809505
:1000F00085B908958FEF85B908958FEF84B985B9D3
:1001000017B880E680937C001092640087E88093A3
:100110007A0082E390E00E9440000E945F009C0110
:10012000A1EAB0EA0E949F009695879592958295E4
:100130008F7089279F7089270E946C00EECFA29F45
:10014000B001B39FC001A39F700D811D1124911DAB
:10015000B29F700D811D1124911D0895F894FFCF59
:00000001FF
