:100000000C9434000C943E000C943E000C943E0082
:100010000C943E000C943E000C943E000C943E0068
:100020000C943E000C943E000C943E000C943E0058
:100030000C943E000C943E000C943E000C943E0048
:100040000C943E000C943E000C943E000C943E0038
:100050000C943E000C943E000C943E000C943E0028
:100060000C943E000C943E0011241FBECFEFD8E04C
:10007000DEBFCDBF0E946F010C944D030C940000B5
:10008000CF93DF9300D0CDB7DEB79A8389830DC0BD
:1000900014BC16BC83E085BD86B58A3FE8F315BC69
:1000A00089819A8101979A83898389819A81181617
:1000B000190674F30F900F90DF91CF91089595B1C9
:1000C0009B7F95B98EBD0DB407FEFDCF6EBD0DB4FF
:1000D00007FEFDCF85B1846085B9089584B18C6237
:1000E00084B981E58CBD63E070E089E090E00E9416
:1000F0005F0062E070E08BE090E00E945F00089596
:10010000CF93DF932AE030E0B9010E942503FC0180
:10011000CB01B9010E942503EC01BF0181E090E011
:100120000E945F00BE0182E090E00E945F00DF91CC
:10013000CF9108951092B90088E48093B80084E0CC
:100140008093BC00089584EA8093BC008091BC0039
:100150008823E4F708958091BC008823E4F784E9BC
:100160008093BC00089584EA8093BC008091BC0019
:100170008823E4F70895880F9091BC009923E4F751
:100180008093BB0084E88093BC008091BC008823EE
:10019000E4F7089590E0880F991F81609091BC006A
:1001A0009923E4F78093BB0084E88093BC0080919E
:1001B000BC008823E4F708959091BC009923E4F7EC
:1001C0008093BB0084E88093BC008091BC008823AE
:1001D000E4F7089587B117B888B1806388B90E94A1
:1001E0009A000E94A30088E10E94BB0088E00E9460
:1001F000DC0080E00E94DC0008959091BC0099230F
:10020000E4F7882321F084EC8093BC0003C084E8E9
:100210008093BC008091BC008823E4F78091BB00F0
:1002200008951F93CF93DF930E94A30088E10E945B
:10023000BB0085E00E94DC000E94B30088E10E94C0
:10024000CA0081E00E94FD00182F80E00E94FD009E
:10025000C82FD0E00E94AB00612F6F7170E014FFD7
:1002600014C01F7080E1189F90011124D595C79587
:10027000D595C795D595C795D595C7952C0F3D1F95
:1002800060E071E0621B730B10C062957295707F25
:100290007627607F7627D595C795D595C795D5954F
:1002A000C795D595C7956C0F7D1F072E000C880B41
:1002B000990B0E942C0220E030E040E151E40E94C2
:1002C000B80220E030E040EA50E40E9482010E943F
:1002D000F401CB018096DF91CF911F9108950E9488
:1002E0006E000E94EA0061E070E08CE090E00E9405
:1002F0005F000E9411010E94800084E690E00E944D
:100300004000F7CF0E9496010C947E020E94770273
:1003100058F00E94700240F029F45F3F29F00C94DD
:10032000670251110C94B2020C946D020E948F026C
:1003300068F39923B1F3552391F3951B550BBB2714
:10034000AA2762177307840738F09F5F5F4F220F59
:10035000331F441FAA1FA9F335D00E2E3AF0E0E850
:1003600032D091505040E695001CCAF72BD0FE2F9A
:1003700029D0660F771F881FBB1F2617370748072E
:10038000AB07B0E809F0BB0B802DBF01FF279358E6
:100390005F4F3AF09E3F510578F00C9467020C9441
:1003A000B2025F3FE4F3983ED4F386957795679564
:1003B000B795F7959F5FC9F7880F911D969587951B
:1003C00097F90895E1E0660F771F881FBB1F62173A
:1003D00073078407BA0720F0621B730B840BBA0BF8
:1003E000EE1F88F7E09508950E94FB016894B11113
:1003F0000C94B20208950E94970288F09F5798F0DB
:10040000B92F9927B751B0F0E1F0660F771F881F19
:10041000991F1AF0BA95C9F714C0B13091F00E9433
:10042000B102B1E008950C94B102672F782F8827AC
:10043000B85F39F0B93FCCF3869577956795B3955A
:10044000D9F73EF490958095709561957F4F8F4FC9
:100450009F4F0895E89409C097FB3EF490958095CE
:10046000709561957F4F8F4F9F4F9923A9F0F92F7A
:1004700096E9BB279395F695879577956795B795F8
:10048000F111F8CFFAF4BB0F11F460FF1BC06F5FDE
:100490007F4F8F4F9F4F16C0882311F096E911C0F0
:1004A000772321F09EE8872F762F05C0662371F011
:1004B00096E8862F70E060E02AF09A95660F771F25
:1004C000881FDAF7880F9695879597F9089597F919
:1004D0009F6780E870E060E008959FEF80EC0895EA
:1004E00000240A9416161706180609060895002413
:1004F0000A9412161306140605060895092E03948D
:10050000000C11F4882352F0BB0F40F4BF2B11F400
:1005100060FF04C06F5F7F4F8F4F9F4F089557FD5F
:100520009058440F551F59F05F3F71F04795880F61
:1005300097FB991F61F09F3F79F0879508951216F8
:1005400013061406551FF2CF4695F1DF08C01616A4
:1005500017061806991FF1CF869571056105089455
:100560000895E894BB2766277727CB0197F908956C
:100570000E94CB020C947E020E94700238F00E940E
:10058000770220F0952311F00C9467020C946D0211
:1005900011240C94B2020E948F0270F3959FC1F354
:1005A000950F50E0551F629FF001729FBB27F00D21
:1005B000B11D639FAA27F00DB11DAA1F649F662776
:1005C000B00DA11D661F829F2227B00DA11D621FC5
:1005D000739FB00DA11D621F839FA00D611D221F7F
:1005E000749F3327A00D611D231F849F600D211D63
:1005F000822F762F6A2F11249F5750409AF0F1F0E6
:1006000088234AF0EE0FFF1FBB1F661F771F881F4E
:1006100091505040A9F79E3F510580F00C9467021D
:100620000C94B2025F3FE4F3983ED4F3869577953D
:100630006795B795F795E7959F5FC1F7FE2B880FF4
:10064000911D9695879597F9089597FB072E16F4B7
:10065000009407D077FD09D00E94390307FC05D02C
:100660003EF4909581959F4F0895709561957F4FC9
:100670000895AA1BBB1B51E107C0AA1FBB1FA617E9
:10068000B70710F0A61BB70B881F991F5A95A9F73B
:0E06900080959095BC01CD010895F894FFCFA0
:00000001FF
