:100000000C9434000C94C6000C9414010C943E0023
:100010000C943E000C943E000C943E000C943E0068
:100020000C943E000C943E000C943E000C943E0058
:100030000C943E000C943E000C943E000C943E0048
:100040000C943E000C943E000C943E000C943E0038
:100050000C943E000C943E000C943E000C943E0028
:100060000C943E000C943E0011241FBECFEFD8E04C
:10007000DEBFCDBF0E9470000C9468010C9400009C
:10008000CF93DF9300D0CDB7DEB79A838983898180
:100090009A811816190674F414BC16BC83E085BD49
:1000A00086B58A3FE8F315BC89819A8101979A83C6
:1000B0008983EDCF0F900F90DF91CF910895992311
:1000C00064F021E030E0A90102C0440F551F8A9579
:1000D000E2F7CA01809588B908958FEF88B908952D
:1000E0008FEF87B988B91AB88FE08093690083E0F1
:1000F0008DBB789401E010E0C0E0D0E0011511055F
:1001000019F081E090E002C08FEF9FEFC80FD91F78
:10011000209711F401E010E0C330D10511F400E0A4
:1001200010E0CE010E945F0088EE93E00E94400044
:10013000E5CF40E050E060E070E0181619061CF5CD
:100140009C0121703078332334F4215031092E6F13
:100150003F6F2F5F3F4F2130310551F421E030E0F8
:10016000042E02C0220F331F0A94E2F7622B732B76
:100170004F5F5F4F9C01992314F42F5F3F4FC901DC
:1001800095958795DACF609568B908951F920F927B
:100190000FB60F921124EF92FF920F931F932F939C
:1001A0003F934F935F936F937F938F939F93AF93FF
:1001B000BF93CF93DF93EF93FF93E8B0F4B405B50B
:1001C00016B58FEF9FEF0E945F0080ED97E00E94D1
:1001D0004000C0E0D0E0C031D1054CF4CE010E9417
:1001E00099008AEF90E00E9440002196F4CFE8B891
:1001F000F4BC05BD16BD81E08CBBFF91EF91DF9192
:10020000CF91BF91AF919F918F917F916F915F91AE
:100210004F913F912F911F910F91FF90EF900F9071
:100220000FBE0F901F9018951F920F920FB60F924E
:100230001124EF92FF920F931F932F933F934F93AD
:100240005F936F937F938F939F93AF93BF93CF935E
:10025000DF93EF93FF93E8B0F4B405B516B580EFE4
:1002600088B980ED97E00E944000C0E0D0E0C43043
:10027000D1058CF428B181E090E00C2E02C0880FEB
:10028000991F0A94E2F7822B88B984EF91E00E94CB
:1002900040002196ECCFE8B8F4BC05BD16BD81E066
:1002A0008CBBFF91EF91DF91CF91BF91AF919F9167
:1002B0008F917F916F915F914F913F912F911F91FE
:1002C0000F91FF90EF900F900FBE0F901F90189519
:0402D000F894FFCFD0
:00000001FF
