S01700004763634170706C69636174696F6E312E737265635B
S11300000C9434000C943E000C943E000C943E007E
S11300100C943E000C943E000C943E000C943E0064
S11300200C943E000C943E000C943E000C943E0054
S11300300C943E000C943E000C943E000C943E0044
S11300400C943E000C943E000C943E000C943E0034
S11300500C943E000C943E000C943E000C943E0024
S11300600C943E000C943E0011241FBECFEFD8E048
S1130070DEBFCDBF0E9440000C9456000C940000DB
S113008080EC8AB98BB94B9B04C08BB18F7B8BB945
S113009003C08BB180648BB94C9B04C08BB18F7748
S11300A08BB9F1CF8BB180688BB9EDCFF894FFCFCA
S9030000FC
