:100000000C9434000C943E000C943E000C943E0082
:100010000C943E000C943E000C943E000C943E0068
:100020000C943E000C943E000C943E000C943E0058
:100030000C943E000C943E000C943E000C943E0048
:100040000C943E000C943E000C943E000C943E0038
:100050000C943E000C943E000C943E000C943E0028
:100060000C943E000C943E0011241FBECFEFD8E04C
:10007000DEBFCDBF0E9487000C94B3000C9400003B
:1000800089B18695869591E08927817090E00895E1
:10009000CF93DF9300D0CDB7DEB79A8389830DC0AD
:1000A00014BC16BC83E085BD86B58A3FE8F315BC59
:1000B00089819A8101979A83898389819A81181607
:1000C000190674F30F900F90DF91CF91089581304E
:1000D000910589F03CF48F3F2FEF9207A9F0892B0F
:1000E00039F008958230910549F0039751F0089551
:1000F0008EEF88B908958DEF88B908958BEF88B990
:10010000089587EF88B908958FEF88B908958FEF24
:1001100087B988B91AB801E010E0C0E0D0E00E94C9
:100120004000892B29F08FEF9FEF0E94670016C0D7
:100130000115110519F081E090E002C08FEF9FEFEB
:10014000C80FD91F209711F401E010E0C330D1058A
:1001500011F400E010E0CE010E94670088EE93E009
:0A0160000E944800DCCFF894FFCFA6
:00000001FF
